{
  "contractName": "IPFSAssetManager",
  "abi": [
    {
      "inputs": [
        {
          "internalType": "string",
          "name": "_name",
          "type": "string"
        },
        {
          "internalType": "string",
          "name": "_symbol",
          "type": "string"
        }
      ],
      "stateMutability": "nonpayable",
      "type": "constructor"
    },
    {
      "anonymous": false,
      "inputs": [
        {
          "indexed": false,
          "internalType": "uint256",
          "name": "tokenId",
          "type": "uint256"
        },
        {
          "indexed": false,
          "internalType": "string",
          "name": "ipfsHash",
          "type": "string"
        },
        {
          "indexed": false,
          "internalType": "string",
          "name": "name",
          "type": "string"
        },
        {
          "indexed": false,
          "internalType": "address",
          "name": "owner",
          "type": "address"
        }
      ],
      "name": "TokenCreated",
      "type": "event"
    },
    {
      "anonymous": false,
      "inputs": [
        {
          "indexed": false,
          "internalType": "uint256",
          "name": "tokenId",
          "type": "uint256"
        },
        {
          "indexed": false,
          "internalType": "address",
          "name": "from",
          "type": "address"
        },
        {
          "indexed": false,
          "internalType": "address",
          "name": "to",
          "type": "address"
        }
      ],
      "name": "TokenTransferred",
      "type": "event"
    },
    {
      "inputs": [],
      "name": "name",
      "outputs": [
        {
          "internalType": "string",
          "name": "",
          "type": "string"
        }
      ],
      "stateMutability": "view",
      "type": "function",
      "constant": true
    },
    {
      "inputs": [],
      "name": "symbol",
      "outputs": [
        {
          "internalType": "string",
          "name": "",
          "type": "string"
        }
      ],
      "stateMutability": "view",
      "type": "function",
      "constant": true
    },
    {
      "inputs": [
        {
          "internalType": "string",
          "name": "_ipfsHash",
          "type": "string"
        },
        {
          "internalType": "string",
          "name": "_assetName",
          "type": "string"
        }
      ],
      "name": "createToken",
      "outputs": [],
      "stateMutability": "nonpayable",
      "type": "function"
    },
    {
      "inputs": [
        {
          "internalType": "uint256",
          "name": "_tokenId",
          "type": "uint256"
        },
        {
          "internalType": "address",
          "name": "_to",
          "type": "address"
        }
      ],
      "name": "transferToken",
      "outputs": [],
      "stateMutability": "nonpayable",
      "type": "function"
    },
    {
      "inputs": [
        {
          "internalType": "address",
          "name": "_owner",
          "type": "address"
        }
      ],
      "name": "balanceOf",
      "outputs": [
        {
          "internalType": "uint256",
          "name": "",
          "type": "uint256"
        }
      ],
      "stateMutability": "view",
      "type": "function",
      "constant": true
    },
    {
      "inputs": [
        {
          "internalType": "uint256",
          "name": "_tokenId",
          "type": "uint256"
        }
      ],
      "name": "ownerOf",
      "outputs": [
        {
          "internalType": "address",
          "name": "",
          "type": "address"
        }
      ],
      "stateMutability": "view",
      "type": "function",
      "constant": true
    },
    {
      "inputs": [],
      "name": "totalTokens",
      "outputs": [
        {
          "internalType": "uint256",
          "name": "",
          "type": "uint256"
        }
      ],
      "stateMutability": "view",
      "type": "function",
      "constant": true
    },
    {
      "inputs": [
        {
          "internalType": "uint256",
          "name": "_tokenId",
          "type": "uint256"
        }
      ],
      "name": "getIPFSHash",
      "outputs": [
        {
          "internalType": "string",
          "name": "",
          "type": "string"
        }
      ],
      "stateMutability": "view",
      "type": "function",
      "constant": true
    },
    {
      "inputs": [
        {
          "internalType": "uint256",
          "name": "_tokenId",
          "type": "uint256"
        }
      ],
      "name": "getTokenName",
      "outputs": [
        {
          "internalType": "string",
          "name": "",
          "type": "string"
        }
      ],
      "stateMutability": "view",
      "type": "function",
      "constant": true
    }
  ],
  "bytecode": "0x608060405234801561000f575f5ffd5b506040516116a03803806116a0833981810160405281019061003191906101a4565b815f908161003f919061042a565b50806001908161004f919061042a565b5050506104f9565b5f604051905090565b5f5ffd5b5f5ffd5b5f5ffd5b5f5ffd5b5f601f19601f8301169050919050565b7f4e487b71000000000000000000000000000000000000000000000000000000005f52604160045260245ffd5b6100b682610070565b810181811067ffffffffffffffff821117156100d5576100d4610080565b5b80604052505050565b5f6100e7610057565b90506100f382826100ad565b919050565b5f67ffffffffffffffff82111561011257610111610080565b5b61011b82610070565b9050602081019050919050565b8281835e5f83830152505050565b5f610148610143846100f8565b6100de565b9050828152602081018484840111156101645761016361006c565b5b61016f848285610128565b509392505050565b5f82601f83011261018b5761018a610068565b5b815161019b848260208601610136565b91505092915050565b5f5f604083850312156101ba576101b9610060565b5b5f83015167ffffffffffffffff8111156101d7576101d6610064565b5b6101e385828601610177565b925050602083015167ffffffffffffffff81111561020457610203610064565b5b61021085828601610177565b9150509250929050565b5f81519050919050565b7f4e487b71000000000000000000000000000000000000000000000000000000005f52602260045260245ffd5b5f600282049050600182168061026857607f821691505b60208210810361027b5761027a610224565b5b50919050565b5f819050815f5260205f209050919050565b5f6020601f8301049050919050565b5f82821b905092915050565b5f600883026102dd7fffffffffffffffffffffffffffffffffffffffffffffffffffffffffffffffff826102a2565b6102e786836102a2565b95508019841693508086168417925050509392505050565b5f819050919050565b5f819050919050565b5f61032b610326610321846102ff565b610308565b6102ff565b9050919050565b5f819050919050565b61034483610311565b61035861035082610332565b8484546102ae565b825550505050565b5f5f905090565b61036f610360565b61037a81848461033b565b505050565b5b8181101561039d576103925f82610367565b600181019050610380565b5050565b601f8211156103e2576103b381610281565b6103bc84610293565b810160208510156103cb578190505b6103df6103d785610293565b83018261037f565b50505b505050565b5f82821c905092915050565b5f6104025f19846008026103e7565b1980831691505092915050565b5f61041a83836103f3565b9150826002028217905092915050565b6104338261021a565b67ffffffffffffffff81111561044c5761044b610080565b5b6104568254610251565b6104618282856103a1565b5f60209050601f831160018114610492575f8415610480578287015190505b61048a858261040f565b8655506104f1565b601f1984166104a086610281565b5f5b828110156104c7578489015182556001820191506020850194506020810190506104a2565b868310156104e457848901516104e0601f8916826103f3565b8355505b6001600288020188555050505b505050505050565b61119a806105065f395ff3fe608060405234801561000f575f5ffd5b5060043610610091575f3560e01c806370a082311161006457806370a082311461012f5780637e1c0c091461015f57806395d89b411461017d578063bad425901461019b578063dbe16c07146101b757610091565b806306fdde03146100955780632f2f2d56146100b357806340307d95146100cf5780636352211e146100ff575b5f5ffd5b61009d6101e7565b6040516100aa9190610965565b60405180910390f35b6100cd60048036038101906100c89190610ac2565b610272565b005b6100e960048036038101906100e49190610b6b565b6103fc565b6040516100f69190610965565b60405180910390f35b61011960048036038101906101149190610b6b565b6104a0565b6040516101269190610bd5565b60405180910390f35b61014960048036038101906101449190610c18565b6104dc565b6040516101569190610c52565b60405180910390f35b610167610525565b6040516101749190610c52565b60405180910390f35b61018561052e565b6040516101929190610965565b60405180910390f35b6101b560048036038101906101b09190610c6b565b6105ba565b005b6101d160048036038101906101cc9190610b6b565b610757565b6040516101de9190610965565b60405180910390f35b5f80546101f390610cd6565b80601f016020809104026020016040519081016040528092919081815260200182805461021f90610cd6565b801561026a5780601f106102415761010080835404028352916020019161026a565b820191905f5260205f20905b81548152906001019060200180831161024d57829003601f168201915b505050505081565b5f600454905060045f81548092919061028a90610d33565b91905055505f60405180608001604052808381526020018581526020013373ffffffffffffffffffffffffffffffffffffffff1681526020018481525090508060025f8481526020019081526020015f205f820151815f015560208201518160010190816102f89190610f1a565b506040820151816002015f6101000a81548173ffffffffffffffffffffffffffffffffffffffff021916908373ffffffffffffffffffffffffffffffffffffffff16021790555060608201518160030190816103549190610f1a565b5090505060035f3373ffffffffffffffffffffffffffffffffffffffff1673ffffffffffffffffffffffffffffffffffffffff1681526020019081526020015f2082908060018154018082558091505060019003905f5260205f20015f90919091909150557fa85a84707841ce05b207636d22472a63ba19ca99b9e3cb29d8fc584c10d03cdb828585336040516103ee9493929190610fe9565b60405180910390a150505050565b606060025f8381526020019081526020015f20600101805461041d90610cd6565b80601f016020809104026020016040519081016040528092919081815260200182805461044990610cd6565b80156104945780601f1061046b57610100808354040283529160200191610494565b820191905f5260205f20905b81548152906001019060200180831161047757829003601f168201915b50505050509050919050565b5f60025f8381526020019081526020015f206002015f9054906101000a900473ffffffffffffffffffffffffffffffffffffffff169050919050565b5f60035f8373ffffffffffffffffffffffffffffffffffffffff1673ffffffffffffffffffffffffffffffffffffffff1681526020019081526020015f20805490509050919050565b5f600454905090565b6001805461053b90610cd6565b80601f016020809104026020016040519081016040528092919081815260200182805461056790610cd6565b80156105b25780601f10610589576101008083540402835291602001916105b2565b820191905f5260205f20905b81548152906001019060200180831161059557829003601f168201915b505050505081565b3373ffffffffffffffffffffffffffffffffffffffff1660025f8481526020019081526020015f206002015f9054906101000a900473ffffffffffffffffffffffffffffffffffffffff1673ffffffffffffffffffffffffffffffffffffffff161461065b576040517f08c379a000000000000000000000000000000000000000000000000000000000815260040161065290611084565b60405180910390fd5b61066533836107fb565b8060025f8481526020019081526020015f206002015f6101000a81548173ffffffffffffffffffffffffffffffffffffffff021916908373ffffffffffffffffffffffffffffffffffffffff16021790555060035f8273ffffffffffffffffffffffffffffffffffffffff1673ffffffffffffffffffffffffffffffffffffffff1681526020019081526020015f2082908060018154018082558091505060019003905f5260205f20015f90919091909150557fa84f763be5bb36163517fb87c7af39f875a97866fdf7806eb1b3eac837ae35ea82338360405161074b939291906110a2565b60405180910390a15050565b606060025f8381526020019081526020015f20600301805461077890610cd6565b80601f01602080910402602001604051908101604052809291908181526020018280546107a490610cd6565b80156107ef5780601f106107c6576101008083540402835291602001916107ef565b820191905f5260205f20905b8154815290600101906020018083116107d257829003601f168201915b50505050509050919050565b5f60035f8473ffffffffffffffffffffffffffffffffffffffff1673ffffffffffffffffffffffffffffffffffffffff1681526020019081526020015f2090505f5f90505b81805490508110156108ef57828282815481106108605761085f6110d7565b5b905f5260205f200154036108e25781600183805490506108809190611104565b81548110610891576108906110d7565b5b905f5260205f2001548282815481106108ad576108ac6110d7565b5b905f5260205f200181905550818054806108ca576108c9611137565b5b600190038181905f5260205f20015f905590556108ef565b8080600101915050610840565b50505050565b5f81519050919050565b5f82825260208201905092915050565b8281835e5f83830152505050565b5f601f19601f8301169050919050565b5f610937826108f5565b61094181856108ff565b935061095181856020860161090f565b61095a8161091d565b840191505092915050565b5f6020820190508181035f83015261097d818461092d565b905092915050565b5f604051905090565b5f5ffd5b5f5ffd5b5f5ffd5b5f5ffd5b7f4e487b71000000000000000000000000000000000000000000000000000000005f52604160045260245ffd5b6109d48261091d565b810181811067ffffffffffffffff821117156109f3576109f261099e565b5b80604052505050565b5f610a05610985565b9050610a1182826109cb565b919050565b5f67ffffffffffffffff821115610a3057610a2f61099e565b5b610a398261091d565b9050602081019050919050565b828183375f83830152505050565b5f610a66610a6184610a16565b6109fc565b905082815260208101848484011115610a8257610a8161099a565b5b610a8d848285610a46565b509392505050565b5f82601f830112610aa957610aa8610996565b5b8135610ab9848260208601610a54565b91505092915050565b5f5f60408385031215610ad857610ad761098e565b5b5f83013567ffffffffffffffff811115610af557610af4610992565b5b610b0185828601610a95565b925050602083013567ffffffffffffffff811115610b2257610b21610992565b5b610b2e85828601610a95565b9150509250929050565b5f819050919050565b610b4a81610b38565b8114610b54575f5ffd5b50565b5f81359050610b6581610b41565b92915050565b5f60208284031215610b8057610b7f61098e565b5b5f610b8d84828501610b57565b91505092915050565b5f73ffffffffffffffffffffffffffffffffffffffff82169050919050565b5f610bbf82610b96565b9050919050565b610bcf81610bb5565b82525050565b5f602082019050610be85f830184610bc6565b92915050565b610bf781610bb5565b8114610c01575f5ffd5b50565b5f81359050610c1281610bee565b92915050565b5f60208284031215610c2d57610c2c61098e565b5b5f610c3a84828501610c04565b91505092915050565b610c4c81610b38565b82525050565b5f602082019050610c655f830184610c43565b92915050565b5f5f60408385031215610c8157610c8061098e565b5b5f610c8e85828601610b57565b9250506020610c9f85828601610c04565b9150509250929050565b7f4e487b71000000000000000000000000000000000000000000000000000000005f52602260045260245ffd5b5f6002820490506001821680610ced57607f821691505b602082108103610d0057610cff610ca9565b5b50919050565b7f4e487b71000000000000000000000000000000000000000000000000000000005f52601160045260245ffd5b5f610d3d82610b38565b91507fffffffffffffffffffffffffffffffffffffffffffffffffffffffffffffffff8203610d6f57610d6e610d06565b5b600182019050919050565b5f819050815f5260205f209050919050565b5f6020601f8301049050919050565b5f82821b905092915050565b5f60088302610dd67fffffffffffffffffffffffffffffffffffffffffffffffffffffffffffffffff82610d9b565b610de08683610d9b565b95508019841693508086168417925050509392505050565b5f819050919050565b5f610e1b610e16610e1184610b38565b610df8565b610b38565b9050919050565b5f819050919050565b610e3483610e01565b610e48610e4082610e22565b848454610da7565b825550505050565b5f5f905090565b610e5f610e50565b610e6a818484610e2b565b505050565b5b81811015610e8d57610e825f82610e57565b600181019050610e70565b5050565b601f821115610ed257610ea381610d7a565b610eac84610d8c565b81016020851015610ebb578190505b610ecf610ec785610d8c565b830182610e6f565b50505b505050565b5f82821c905092915050565b5f610ef25f1984600802610ed7565b1980831691505092915050565b5f610f0a8383610ee3565b9150826002028217905092915050565b610f23826108f5565b67ffffffffffffffff811115610f3c57610f3b61099e565b5b610f468254610cd6565b610f51828285610e91565b5f60209050601f831160018114610f82575f8415610f70578287015190505b610f7a8582610eff565b865550610fe1565b601f198416610f9086610d7a565b5f5b82811015610fb757848901518255600182019150602085019450602081019050610f92565b86831015610fd45784890151610fd0601f891682610ee3565b8355505b6001600288020188555050505b505050505050565b5f608082019050610ffc5f830187610c43565b818103602083015261100e818661092d565b90508181036040830152611022818561092d565b90506110316060830184610bc6565b95945050505050565b7f596f7520646f206e6f74206f776e207468697320746f6b656e000000000000005f82015250565b5f61106e6019836108ff565b91506110798261103a565b602082019050919050565b5f6020820190508181035f83015261109b81611062565b9050919050565b5f6060820190506110b55f830186610c43565b6110c26020830185610bc6565b6110cf6040830184610bc6565b949350505050565b7f4e487b71000000000000000000000000000000000000000000000000000000005f52603260045260245ffd5b5f61110e82610b38565b915061111983610b38565b925082820390508181111561113157611130610d06565b5b92915050565b7f4e487b71000000000000000000000000000000000000000000000000000000005f52603160045260245ffdfea26469706673582212204ed97da83d20b6b3b3e69943c5eac6ae95db279f129dd3c5e3fab567cae4013864736f6c634300081b0033",
  "immutableReferences": {},
  "source": "// SPDX-License-Identifier: MIT\r\npragma solidity >=0.4.16 <0.9.0;\r\n\r\ncontract IPFSAssetManager {\r\n    // Struct to represent a tokenized asset\r\n    struct IPFSToken {\r\n        uint256 id;           // Unique token ID\r\n        string ipfsHash;      // IPFS hash for the asset\r\n        address owner;        // Owner of the token\r\n        string name;          // Name of the token/asset\r\n    }\r\n\r\n    // Contract-level metadata\r\n    string public name;       // Name of the asset collection\r\n    string public symbol;     // Symbol for the asset collection\r\n\r\n    // Mapping from token ID to token details\r\n    mapping(uint256 => IPFSToken) private tokens;\r\n\r\n    // Mapping from owner to their list of token IDs\r\n    mapping(address => uint256[]) private ownerToTokens;\r\n\r\n    // Counter for token IDs\r\n    uint256 private tokenCounter;\r\n\r\n    // Events\r\n    event TokenCreated(uint256 tokenId, string ipfsHash, string name, address owner);\r\n    event TokenTransferred(uint256 tokenId, address from, address to);\r\n\r\n    // Constructor to set the collection name and symbol\r\n    constructor(string memory _name, string memory _symbol) {\r\n        name = _name;\r\n        symbol = _symbol;\r\n    }\r\n\r\n    // Function to create a new token by uploading an IPFS hash\r\n    function createToken(string memory _ipfsHash, string memory _assetName) public {\r\n        uint256 newTokenId = tokenCounter; // Assign a new unique token ID\r\n        tokenCounter++; // Increment the counter\r\n\r\n        // Create the token\r\n        IPFSToken memory newToken = IPFSToken({\r\n            id: newTokenId,\r\n            ipfsHash: _ipfsHash,\r\n            owner: msg.sender,\r\n            name: _assetName\r\n        });\r\n\r\n        // Store the token\r\n        tokens[newTokenId] = newToken;\r\n\r\n        // Update the owner's token list\r\n        ownerToTokens[msg.sender].push(newTokenId);\r\n\r\n        // Emit the creation event\r\n        emit TokenCreated(newTokenId, _ipfsHash, _assetName, msg.sender);\r\n    }\r\n\r\n    // Function to transfer a token to another address\r\n    function transferToken(uint256 _tokenId, address _to) public {\r\n        require(tokens[_tokenId].owner == msg.sender, \"You do not own this token\");\r\n\r\n        // Remove token from the current owner's list\r\n        _removeTokenFromOwner(msg.sender, _tokenId);\r\n\r\n        // Update ownership\r\n        tokens[_tokenId].owner = _to;\r\n\r\n        // Add token to the new owner's list\r\n        ownerToTokens[_to].push(_tokenId);\r\n\r\n        // Emit the transfer event\r\n        emit TokenTransferred(_tokenId, msg.sender, _to);\r\n    }\r\n\r\n    // Function to check the balance of tokens for an account\r\n    function balanceOf(address _owner) public view returns (uint256) {\r\n        return ownerToTokens[_owner].length;\r\n    }\r\n\r\n    // Function to get the owner of a specific token\r\n    function ownerOf(uint256 _tokenId) public view returns (address) {\r\n        return tokens[_tokenId].owner;\r\n    }\r\n\r\n    // Function to get the total token count\r\n    function totalTokens() public view returns (uint256) {\r\n        return tokenCounter;\r\n    }\r\n\r\n    // Function to get the IPFS hash of a token by ID\r\n    function getIPFSHash(uint256 _tokenId) public view returns (string memory) {\r\n        return tokens[_tokenId].ipfsHash;\r\n    }\r\n\r\n    // Function to get the name of a token by ID\r\n    function getTokenName(uint256 _tokenId) public view returns (string memory) {\r\n        return tokens[_tokenId].name;\r\n    }\r\n\r\n    // Internal function to remove a token from an owner's list\r\n    function _removeTokenFromOwner(address _owner, uint256 _tokenId) internal {\r\n        uint256[] storage tokenList = ownerToTokens[_owner];\r\n        for (uint256 i = 0; i < tokenList.length; i++) {\r\n            if (tokenList[i] == _tokenId) {\r\n                // Replace the token to remove with the last token\r\n                tokenList[i] = tokenList[tokenList.length - 1];\r\n                tokenList.pop(); // Remove the last token\r\n                break;\r\n            }\r\n        }\r\n    }\r\n}\r\n",
  "sourcePath": "C:\\Users\\altaf\\Desktop\\Block-Assets-API\\TruffleProject\\contracts\\IPFSAssetManager.sol",
  "compiler": {
    "name": "solc",
    "version": "0.8.27+commit.40a35a09.Emscripten.clang"
  },
  "schemaVersion": "3.4.16",
  "updatedAt": "2025-01-07T05:45:52.299Z",
  "networkType": "ethereum",
  "devdoc": {
    "kind": "dev",
    "methods": {},
    "version": 1
  },
  "userdoc": {
    "kind": "user",
    "methods": {},
    "version": 1
  }
}